S0160000547261666669632053797374656D2E73726563AA
S11300000C942A000C94A9010C943C000C943C0020
S11300100C943C000C943C000C943C000C943C006C
S11300200C943C000C943C000C943C000C943C005C
S11300300C943C000C943C000C943C000C943C004C
S11300400C943C000C943C000C943C000C943C003C
S11300500C943C0011241FBECFE5D8E0DEBFCDBF19
S113006020E0A0E6B0E001C01D92A237B207E1F79C
S11300700E9492010C944E020C9400000E9499017B
S11300800E94570008950E94A301813061F4C111B8
S113009004C061E00E94FE00C1E060916E0082E055
S11300A00E94FE00F0CF0E94A600C0E0ECCF81E0E9
S11300B080936000809361008FEF80936F008AB318
S11300C081608ABB8AB382608ABB8AB384608ABB3C
S11300D087B3816087BB87B3826087BB87B3846043
S11300E087BB0895FC01613039F48081816080838D
S11300F0411102C0897F8083623039F4808182603B
S11301008083411102C08A7F8083633039F4808107
S113011084608083411102C08C7F8083643039F411
S113012080818D7F8083411102C08A7F80830895FE
S1130130462F682F8BE390E00E9472000895462FAB
S1130140682F88E390E00E94720008958091600017
S11301508130C9F480916100813011F0833029F439
S113016062E085E090E00E94E401809161008230C9
S113017011F0843029F461E084EF91E00E94E401FD
S113018082E0809360000E94F8018A3089F58091B2
S11301906100823011F0843099F490916D009F5F7A
S11301A090936D00823011F484E001C082E080936A
S11301B061009A3029F410926D0082E0809361000E
S11301C080916D00811111C080916100813011F026
S11301D0833021F490916F00919502C090916F004B
S11301E090936F00890F8093610081E08093600099
S11301F060E0809161000E949800089560936E0011
S113020090916000913019F0813009F047C08091DD
S11302106100813081F462E085E090E00E94E401B5
S113022060E083E00E949F0060E081E00E9498000B
S113023082E080936E0080916100823011F08430FE
S1130240A1F461E084EF91E00E94E40160E0809118
S113025061000E94980080916E00813031F460E06A
S11302600E949F008FEF80936F0080916100833024
S113027091F480916E00813019F460E00E949F0037
S113028060E081E00E949F0080916E00823019F44A
S11302900E94A601089582E0809360000E94F80104
S11302A08A3089F580916100823011F0843099F4AC
S11302B090916D009F5F90936D00823011F484E003
S11302C001C082E0809361009A3028F010926D00A2
S11302D082E08093610080916D00811111C0809152
S11302E06100813011F0833021F490916F00919579
S11302F002C090916F0090936F00890F809361000A
S113030081E08093600080916D00882351F061E06A
S1130310809161000E949F0061E0809161000E94D1
S1130320980008950E943E000E94430080E090E0FF
S113033008958FB780688FBF85B7836085BF8BB7FB
S113034080648BBF089580917000089510927000AE
S113035008951F920F920FB60F9211248F9381E08C
S1130360809370008F910F900FBE0F901F9018957F
S11303700F931F93613029F021E030E040E050E01A
S113038004C028EE33E040E050E0623021F420E481
S113039032E44FE050E0DC010E943402072F182FB2
S11303A0292F33270F5F1F4F2F4F3F4F00936600B6
S11303B010936700209368003093690061956093FF
S11303C06A001F910F9108950E94B80113BE109204
S11303D0620010926300109264001092650088B766
S11303E0816088BF80916A0082BF81E083BF0895E5
S11303F008B600FE38C040916200509163006091DD
S11304006400709165008091660090916700A091EE
S11304106800B0916900481759076A077B0759F4C7
S113042010926200109263001092640010926500B2
S113043013BE8AE0089588B7816088BF8091620006
S113044090916300A0916400B09165000196A11D94
S1130450B11D8093620090936300A0936400B093F5
S1130460650080E0089508950E943F02A59F900DC5
S1130470B49F900DA49F800D911D11240895A29FF7
S1130480B001B39FC001A39F700D811D1124911D64
S1130490B29F700D811D1124911D0895F894FFCF12
S9030000FC
